:100000000C942A000C943C000C943C000C943C0092
:100010000C943C000C943C000C943C000C943C0070
:100020000C943C000C943C000C943C000C943C0060
:100030000C943C000C943C000C943C000C943C0050
:100040000C943C000C943C000C943C000C943C0040
:100050000C943C0011241FBECFE5D8E0DEBFCDBF1D
:1000600020E0A0E6B0E001C01D92A236B207E1F7A1
:100070000E943E020C945D060C94000062E081E454
:100080000E942E0261E081E40E942E0260E081E481
:100090000E942E0262E084E40E949C010E94A8015A
:1000A0000895CF93DF9361E082E40E94330261E020
:1000B00081E40E943302C0E0D0E022C084E690E0F8
:1000C0000E94AB019E01ADECBCEC0E944E069695E1
:1000D0008795969587959C01220F331F220F331F1A
:1000E000820F931FC817D90751F4209741F061E0A0
:1000F00081E40E943B0261E082E40E943B0221967F
:10010000C233D105D8F261E081E40E94370261E098
:1001100082E40E943702DF91CF91089562E082E489
:100120000E9433020E94510062E082E40E94370282
:1001300060E082E40E94330260E081E40E943702C2
:1001400062E081E40E94330288E893E10E94AB01FF
:10015000089562E081E40E9437020E94510060E04D
:1001600082E40E94370262E082E40E943302089532
:10017000CF93DF9360E081E40E943302C0E0D0E0DF
:100180002BC0C639D10521F462E082E40E94370217
:100190008AE090E00E94AB0140E650E062E084E437
:1001A0000E94A001809160008093610006C040E63B
:1001B00050E062E084E40E94A00180916000813000
:1001C000B1F380916100813031F40E948E000E9471
:1001D000A900C1E006C02196C43F81E0D80788F29B
:1001E000C0E060E081E40E9437028C2FDF91CF9164
:1001F0000895CF93DF9361E081E40E943302C0E071
:10020000D0E03CC08AE090E00E94AB019E013695B0
:100210002795ABE7B4E10E944E069695879542E399
:10022000489F9001499F300D1124C217D30731F424
:10023000209721F061E081E40E943B0240E650E01B
:1002400062E084E40E94A0018091600080936100DC
:1002500006C040E650E062E084E40E94A001809184
:1002600060008130B1F380916100813031F40E94EF
:100270008E000E94A900C1E007C02196C43F81E022
:10028000D80708F4BFCFC0E061E081E40E943702E4
:100290008C2FDF91CF910895CF93DF9362E081E4BB
:1002A0000E943302C0E0D0E02AC08AE090E00E94C1
:1002B000AB0140E650E062E084E40E94A00180913E
:1002C00060008093610006C040E650E062E084E494
:1002D0000E94A001809160008130B1F380916100A3
:1002E000813061F460E082E40E94330288E893E1A7
:1002F0000E94AB010E94A900C1E006C02196C43F44
:1003000081E0D80790F2C0E062E081E40E94370209
:100310008C2FDF91CF9108950E94B80081110AC0FF
:100320000E94F900811106C00E944C01811102C097
:100330000E94F90080E0089540E00E944302089581
:100340004115510519F00E945903089580E0089560
:100350000E9400040895CF92DF92EF92FF920F93D4
:100360001F93CF93DF938430910508F00397BC016E
:1003700080E090E00E942A0520E030E04AE754E463
:100380000E9489046B017C012DEB37E346E859E3B9
:100390000E9489040E94FB048B010F5F1F4F2DEB0D
:1003A00037E346E855E3C701B6010E9489046B01B3
:1003B0007C01B80180E090E00E942A059B01AC011D
:1003C000C701B6010E9489049B01AC0160E070E0A6
:1003D00080E893E40E941C046B017C010E94FB04F2
:1003E000C62F70E080E090E00E942C059B01AC01DC
:1003F000C701B6010E941C0420E030E048EC52E442
:100400000E94BD0520E030E048E452E40E94B805B7
:1004100088230CF0CF5F8C2F90E00E940D04F82E03
:1004200081E0F81211C00E940204F82EC0E0D0E072
:1004300006C008B600FEFDCF0E9418042196C01722
:10044000D107B8F30E940B048F2DDF91CF911F913C
:100450000F91FF90EF90DF90CF90089541E0682FCB
:100460000E944302089541E00E94CE02089540E0B8
:100470000E94CE0208950E94C30308950E943E0088
:100480000E948C01FDCF823441F118F4813441F097
:100490007BC0833409F43EC0843409F458C074C06E
:1004A000413061F42AB381E090E002C0880F991FC7
:1004B0006A95E2F7822B8ABB82E00895411166C0FB
:1004C0002AB381E090E002C0880F991F6A95E2F795
:1004D000809582238ABB82E00895413061F427B37E
:1004E00081E090E002C0880F991F6A95E2F7822BA5
:1004F00087BB82E0089541114BC027B381E090E0B3
:1005000002C0880F991F6A95E2F78095822387BB06
:1005100082E00895413061F424B381E090E002C0AC
:10052000880F991F6A95E2F7822B84BB82E00895B9
:10053000411130C024B381E090E002C0880F991FC0
:100540006A95E2F78095822384BB82E0089541306A
:1005500061F421B381E090E002C0880F991F6A9591
:10056000E2F7822B81BB82E00895411115C021B3CF
:1005700081E090E002C0880F991F6A95E2F78095AC
:10058000822381BB82E0089581E0089581E008958F
:1005900081E0089581E0089581E00895823441F179
:1005A00018F4813441F07BC0833409F43EC08434B4
:1005B00009F458C074C0413061F42BB381E090E07D
:1005C00002C0880F991F6A95E2F7822B8BBB82E0ED
:1005D0000895411166C02BB381E090E002C0880FFE
:1005E000991F6A95E2F7809582238BBB82E008957C
:1005F000413061F428B381E090E002C0880F991F78
:100600006A95E2F7822B88BB82E0089541114BC0C6
:1006100028B381E090E002C0880F991F6A95E2F745
:100620008095822388BB82E00895413061F425B330
:1006300081E090E002C0880F991F6A95E2F7822B53
:1006400085BB82E00895411130C025B381E090E080
:1006500002C0880F991F6A95E2F78095822385BBB7
:1006600082E00895413061F422B381E090E002C05D
:10067000880F991F6A95E2F7822B82BB82E008956A
:10068000411115C022B381E090E002C0880F991F8C
:100690006A95E2F78095822382BB82E0089581E02B
:1006A000089581E0089581E0089581E0089581E052
:1006B0000895823409F118F4813439F062C083342A
:1006C00091F1843409F446C05CC079B381E090E0D4
:1006D0009C01062E02C0220F331F0A94E2F7872FD7
:1006E00090E08223932302C0959587956A95E2F75F
:1006F000FA01808382E0089576B381E090E09C0166
:10070000062E02C0220F331F0A94E2F7872F90E0D3
:100710008223932302C0959587956A95E2F7FA01A3
:10072000808382E0089573B381E090E09C01062EFF
:1007300002C0220F331F0A94E2F7872F90E0822332
:10074000932302C0959587956A95E2F7FA01808315
:1007500082E0089570B381E090E09C01062E02C013
:10076000220F331F0A94E2F7872F90E0822393230E
:1007700002C0959587956A95E2F7FA01808382E039
:10078000089581E008958234A9F018F4813431F09D
:1007900035C08334D9F0843429F130C02BB381E0E3
:1007A00090E002C0880F991F6A95E2F782278BBB01
:1007B00082E0089528B381E090E002C0880F991F7D
:1007C0006A95E2F7822788BB82E0089525B381E02D
:1007D00090E002C0880F991F6A95E2F7822785BBD7
:1007E00082E0089522B381E090E002C0880F991F53
:1007F0006A95E2F7822782BB82E0089581E008953E
:1008000013BE0895863028F493B7892B83BF81E007
:10081000089582E0089513BE08958F3F910509F071
:1008200028F492B7892B82BF81E0089582E0089571
:1008300088B7816088BF08955058BB27AA270E94B7
:1008400034040C947E050E94700538F00E947705F0
:1008500020F039F49F3F19F426F40C946D050EF442
:10086000E095E7FB0C946705E92F0E948F0558F38C
:10087000BA17620773078407950720F079F4A6F585
:100880000C94B1050EF4E0950B2EBA2FA02D0B01A0
:10089000B90190010C01CA01A0011124FF27591BC5
:1008A00099F0593F50F4503E68F11A16F040A22FCB
:1008B000232F342F4427585FF3CF4695379527953C
:1008C000A795F0405395C9F77EF41F16BA0B620B3B
:1008D000730B840BBAF09150A1F0FF0FBB1F661F82
:1008E000771F881FC2F70EC0BA0F621F731F841FC5
:1008F00048F4879577956795B795F7959E3F08F0EB
:10090000B0CF9395880F08F09927EE0F97958795AC
:1009100008950E949D040C947E050E94770558F06E
:100920000E94700540F029F45F3F29F00C946705A0
:1009300051110C94B2050C946D050E948F0568F35B
:100940009923B1F3552391F3951B550BBB27AA2788
:1009500062177307840738F09F5F5F4F220F331FC2
:10096000441FAA1FA9F335D00E2E3AF0E0E832D08A
:1009700091505040E695001CCAF72BD0FE2F29D08D
:10098000660F771F881FBB1F261737074807AB075F
:10099000B0E809F0BB0B802DBF01FF2793585F4FD4
:1009A0003AF09E3F510578F00C9467050C94B2051F
:1009B0005F3FE4F3983ED4F3869577956795B795B6
:1009C000F7959F5FC9F7880F911D9695879597F9C1
:1009D0000895E1E0660F771F881FBB1F621773073A
:1009E0008407BA0720F0621B730B840BBA0BEE1F4F
:1009F00088F7E09508950E94970588F09F5798F032
:100A0000B92F9927B751B0F0E1F0660F771F881F13
:100A1000991F1AF0BA95C9F714C0B13091F00E942D
:100A2000B105B1E008950C94B105672F782F8827A0
:100A3000B85F39F0B93FCCF3869577956795B39554
:100A4000D9F73EF490958095709561957F4F8F4FC3
:100A50009F4F0895E89409C097FB3EF490958095C8
:100A6000709561957F4F8F4F9F4F9923A9F0F92F74
:100A700096E9BB279395F695879577956795B795F2
:100A8000F111F8CFFAF4BB0F11F460FF1BC06F5FD8
:100A90007F4F8F4F9F4F16C0882311F096E911C0EA
:100AA000772321F09EE8872F762F05C0662371F00B
:100AB00096E8862F70E060E02AF09A95660F771F1F
:100AC000881FDAF7880F9695879597F9089597F913
:100AD0009F6780E870E060E008959FEF80EC0895E4
:100AE00000240A941616170618060906089500240D
:100AF0000A9412161306140605060895092E039487
:100B0000000C11F4882352F0BB0F40F4BF2B11F4FA
:100B100060FF04C06F5F7F4F8F4F9F4F089557FD59
:100B20009058440F551F59F05F3F71F04795880F5B
:100B300097FB991F61F09F3F79F0879508951216F2
:100B400013061406551FF2CF4695F1DF08C016169E
:100B500017061806991FF1CF86957105610508944F
:100B60000895E894BB2766277727CB0197F9089566
:100B70000E942A0608F48FEF08950E94D0050C9475
:100B80007E050E94700538F00E94770520F09523BD
:100B900011F00C9467050C946D0511240C94B205AA
:100BA0000E948F0570F3959FC1F3950F50E0551F7C
:100BB000629FF001729FBB27F00DB11D639FAA27B2
:100BC000F00DB11DAA1F649F6627B00DA11D661F01
:100BD000829F2227B00DA11D621F739FB00DA11D22
:100BE000621F839FA00D611D221F749F3327A00DDC
:100BF000611D231F849F600D211D822F762F6A2F78
:100C000011249F5750409AF0F1F088234AF0EE0FDC
:100C1000FF1FBB1F661F771F881F91505040A9F709
:100C20009E3F510580F00C9467050C94B2055F3F20
:100C3000E4F3983ED4F3869577956795B795F79545
:100C4000E7959F5FC1F7FE2B880F911D96958795BD
:100C500097F90895990F0008550FAA0BE0E8FEEFE9
:100C600016161706E807F907C0F012161306E40770
:100C7000F50798F0621B730B840B950B39F40A2669
:100C800061F0232B242B252B21F408950A2609F447
:100C9000A140A6958FEF811D811D0895A29FB001EF
:100CA000B39FC001A39F700D811D1124911DB29FA0
:0E0CB000700D811D1124911D0895F894FFCF41
:00000001FF
